:020000040800F2
:10000000D8210020650200089F200008AF150008D5
:100010009D200008A50400085123000800000000EE
:10002000000000000000000000000000CD010008FA
:10003000A70400080000000011020008A920000821
:100040007F0200087F0200087F0200087F0200088C
:100050007F0200087F0200087F0200087F0200087C
:100060007F0200087F0200087F0200087F0200086C
:100070007F0200087F0200087F0200087F0200085C
:100080007F0200087F0200087F0200087F0200084C
:100090007F0200087F0200087F0200087F0200083C
:1000A0007F0200087F0200087F0200087F0200082C
:1000B0007F0200087F020008352100087F02000847
:1000C0007F0200087F0200087F0200087F0200080C
:1000D0007F020008252300087F0200087F02000835
:1000E0007F0200087F0200087F0200087F020008EC
:1000F0007F0200087F0200087F0200087F020008DC
:100100007F0200087F0200087F0200087F020008CB
:100110007F0200087F0200087F0200087F020008BB
:100120007F0200087F0200087F0200087F020008AB
:1001300000F002F800F03AF80AA090E8000C8244BF
:100140008344AAF10107DA4501D100F02FF8AFF29C
:10015000090EBAE80F0013F0010F18BFFB1A43F0A5
:1001600001031847A42B0300C42B0300103A24BF3B
:1001700078C878C1FAD8520724BF30C830C144BF0C
:1001800004680C607047000000230024002500264E
:10019000103A28BF78C1FBD8520728BF30C148BFEA
:1001A0000B6070471FB51FBD10B510BD00F047F9BB
:1001B0001146FFF7F7FF02F0DDF800F065F903B430
:1001C000FFF7F2FF03BC02F0D4F80000224B1968DD
:1001D0000868B0E8F00F80F30988BFF36F8F4FF025
:1001E000000080F311884EF00D0E704700000000F3
:1001F00006480068006880F3088862B661B6BFF3FD
:100200004F8FBFF36F8F00DF00BF00BF08ED00E02E
:10021000EFF30980BFF36F8F0F4B1A6820E9F00FDF
:10022000106008B54FF0500080F31188BFF34F8F76
:10023000BFF36F8F02F05AFF4FF0000080F3118878
:10024000BDE8084019680868B0E8F00F80F3098835
:10025000BFF36F8F704700BF28000020EFF30580C9
:10026000704700000948804709480047FEE7FEE75D
:10027000FEE7FEE7FEE7FEE7FEE7FEE7FEE7FEE756
:1002800004480549054A064B704700003321000821
:1002900031010008D81B0020D8210020D81D0020E3
:1002A000D81D00207047032A40F2308010F0030C64
:1002B00000F0158011F8013BBCF1020F624498BFB9
:1002C00011F801CB00F8013B38BF11F8013BA2F156
:1002D000040298BF00F801CB38BF00F8013B11F0D1
:1002E000030300F05880083AC0F0088051F8043B3E
:1002F000083A51F804CBA0E80810F5E7121D5CBFDE
:1003000051F8043B40F8043BAFF30080D20724BF10
:1003100011F8013B11F801CB48BF11F8012B24BFA4
:1003200000F8013B00F801CB48BF00F8012B7047F3
:1003300002F0FF0343EA032242EA024200F05FB800
:100340004FF0000200B5134694469646203922BF6E
:10035000A0E80C50A0E80C50B1F12001BFF4F7AFB9
:10036000090728BFA0E80C5048BF0CC05DF804EB9B
:10037000890028BF40F8042B08BF704748BF20F809
:10038000022B11F0804F18BF00F8012B7047704707
:1003900070477047704710B5203AC0F00B80B1E845
:1003A0001850203AA0E81850B1E81850A0E81850AA
:1003B000BFF4F5AF5FEA027C24BFB1E81850A0E8B3
:1003C000185044BF18C918C0BDE810405FEA827CCD
:1003D00024BF51F8043B40F8043B08BF7047D207E4
:1003E00028BF31F8023B48BF11F8012B28BF20F885
:1003F000023B48BF00F8012B70474FF00002042970
:10040000C0F0128010F0030C3FF49CAFCCF1040C50
:10041000BCF1020F18BF00F8012BA8BF20F8022B77
:10042000A1EB0C01FFF78EBF5FEAC17C24BF00F88F
:10043000012B00F8012B48BF00F8012B70477546CF
:1004400000F02CF8AE4605006946534620F0070040
:10045000854618B020B5FFF713FFBDE820404FF0E8
:1004600000064FF000074FF000084FF0000B21F09E
:100470000701AC46ACE8C009ACE8C009ACE8C0096B
:10048000ACE8C0098D46704710B50446AFF3008054
:100490002046BDE81040FFF792BE000000487047BC
:1004A000781B0020FEE7704772B6FEE730B5B3F563
:1004B000804F05D06FF0704140F82210002030BD11
:1004C0008C690B688D6823434C688989240144EA50
:1004D0000524234343EA014150F82230014C2340D4
:1004E0001943E9E70000F0CF10B50A6850F8223050
:1004F00023F0010340F822308C68082C23D000231D
:100500004A682243CC681C430B6922431A434B6957
:100510000E4C1A43CB691A430B6A1A434B6A1A43AF
:100520008B6A1A43CB6A1A430B6B1A438B691343CA
:100530004A6B09681A4350F82130A343134340F82B
:100540002130002010BD4023DAE700007FFF0F00BC
:1005500030B5D1E9003443EA04138C688D89240254
:1005600044EA054423430C8A094D00EB820005EB65
:10057000045423430C7D6D0105EB04648969234316
:100580000B43416801F040410B434360002030BD04
:100590000000F0FF10B590F821100022022905D0CC
:1005A0000421816380F82020012010BD01680B68C0
:1005B00023F00E030B6001680B6823F001030B604E
:1005C00090F84030C46B012101FA03F3636080F8B6
:1005D000211080F82020104610BD00002DE9F05FAA
:1005E00090F821100024022903D004218163012402
:1005F00085E001680A6822F00E020A6001680A6854
:1006000022F001020A603F4E3E4FB215DFF8F4C0FF
:10061000DFF8F090DFF8ECA0DFF8E8B0DFF8E4E016
:100620000168783F13011502ACF1640CA9F150097F
:10063000AAF13C0AABF1280BAEF1140E4FF480186E
:10064000B14227D9B9420ED0614512D049451DD0DB
:10065000514518D0594518D0714501D1424615E091
:10066000294EB14201D1012210E0274E1436B14289
:1006700001D110220AE0244E2836B14206D0224A87
:100680003C32914201D11A4600E02A461E49091F18
:100690000A602BE0B94213D0614517D0494522D0FA
:1006A00051451DD059451DD0714501D142461AE032
:1006B000B14202D14FF0807215E0134EB14201D128
:1006C000012210E0104E1436B14201D110220AE08E
:1006D0000D4E2836B14206D00B4A3C32914201D130
:1006E0001A4600E02A46074980394A60012180F80D
:1006F0002110002180F82010416B01B1884720466D
:10070000BDE8F09F800002400804024070B586B04A
:10071000002000900190029003901A48016800297F
:100720002ED1012101601848416941F48071416175
:100730004069032500F48070CDE903504FF48056E2
:100740000224CDE900646946104800F027F84FF60E
:100750008070CDE90004694603950D4800F01EF84D
:100760004CF23370CDE9000469460395094800F066
:1007700015F8CDE9006469460748039500F00EF8C6
:1007800006B070BD1000002000100240001C0140A7
:100790000018014000140140002001402DE9F84FED
:1007A000DFF8C8910024A9F1040B23460F2709F1B3
:1007B000040AABF1040ED1E00125A54006EA0502CA
:1007C000AA4276D1DFF8A8C14E68A6EB0C086645B0
:1007D0002BD00DDC032E34D005DC36B3012E19D01E
:1007E000022E2FD11BE0112E16D0122E2AD119E085
:1007F000B8F5881F19D006DCB8F5803F15D0B8F5DC
:10080000801F1FD111E0B8F5001F0ED0B8F5041FEE
:1008100018D10AE0CB6815E0CB681B1D12E0CB684D
:1008200008330FE0CB680C330CE08B682BB1012B45
:100830004FF0080303D0456104E0042302E00561A2
:1008400000E00023FF2A01D8064601E000F104067B
:100850004FEA840501D9A5F12005D6F8008007FAF2
:1008600005FC28EA0C0803FA05F548EA0508C6F86D
:1008700000804D68ED0070D53E4DAE6946F0010632
:10088000AE61AD6924F0030605F0010500953A4D0F
:1008900006EB050CDCF80850A607360F07FA06F839
:1008A00025EA0805DFF8D480404503D14FF0000861
:1008B00025E052E0DFF8C880404502D14FF0010842
:1008C0001DE0DFF8C080404502D14FF0020816E07D
:1008D000DFF8B480404502D14FF003080FE0DFF8A5
:1008E000AC80404502D14FF0040808E0DFF8A0805A
:1008F000404502D14FF0050801E04FF0060808FA24
:1009000006F848EA0508CCF808804D68D9F8006078
:10091000ED024D4601D5164300E096432E604D682A
:10092000DAF80060AD02554601D5164300E0964363
:100930002E604D68DBF80060AD035D4601D51643BF
:1009400000E096432E604D68DEF80060ED037546CA
:1009500001D5164300E096432E60641C0A681646D3
:10096000E2407FF429AFBDE8F88F000008040140A1
:10097000000011100010024000000140000801407A
:10098000000C01400010014000140140001801401B
:10099000001C0140014880687047000018000020DA
:1009A0000248816802781144816070471800002075
:1009B000074810B5016841F010010160032000F004
:1009C00095F80F2000F006F800F03EF8002010BD6A
:1009D0000020024000B5014687B000221E2000F032
:1009E00065F81E2000F054F81348C16941F0040175
:1009F000C161C06905A900F004000690684600F0D6
:100A00001DF900F03BF90D494000B0FBF1F10D4834
:100A10000B4A491E0260416040F2E7320021C0E902
:100A20000321816000F026FB10B1012007B000BD5A
:100A3000044800F04DFBF9E70010024040420F006F
:100A400000080040F40000200F4808B5816941F01B
:100A500001018161816901F001010091C16941F0E9
:100A60008051C161C069002200F0805000900F21C8
:100A7000901E00F01BF80548416821F0E06141F04C
:100A80000071416008BD00000010024000000140FC
:100A9000002809DB00F01F0201219140400980007D
:100AA00000F1E020C0F8001170470000F0B40E4BD8
:100AB0001B680C46C3F30223C3F10705042D00D9BC
:100AC0000425191D072901D2002300E0DB1E0126A1
:100AD00006FA05F1491E214099409E40761E1640B7
:100AE0003143F0BC01F035BC0CED00E0064900F0EC
:100AF000070208684FF6FF03184040EA0220034A45
:100B000010430860704700000CED00E00000FA059B
:100B10002DE9F0470F46050061D0434E306800F0E4
:100B20000700B84209D2306820F00700384330602F
:100B3000306800F00700B84251D128683B4C81076B
:100B400012D5400703D5606840F4E0606060287803
:100B5000000703D5606840F4605060606068A96871
:100B600020F0F000084360602878C00728D068684B
:100B7000012810D02168022810D0890700292EDA18
:100B8000616821F0030101436160FFF703FF8046C4
:100B900041F288390DE021688903EFE78901EDE72B
:100BA000FFF7F8FEA0EB0801494502D90320BDE894
:100BB000F0876068696800F00C00B0EB810FEFD13E
:100BC000306800F00700B8420BD9306820F0070009
:100BD00038433060306800F00700B84201D001208F
:100BE000E5E72878400705D56068E96820F4E0600B
:100BF000084360602878000706D56068296920F4FA
:100C0000605040EAC100606000F048F86168084A3E
:100C1000C1F30311515CC8400649086006480068EA
:100C2000FFF7D8FE0020C2E700200240001002407B
:100C300072430008240000201C0000200F220260E4
:100C40000C4A536803F003034360536803F0F00356
:100C50008360536803F4E063C36052684FF4E06359
:100C600003EAD20202610448006800F0070008604D
:100C7000704700000010024000200240044805496F
:100C800000684968044AC1F30221515CC8407047BA
:100C90002400002000100240824300080E4A5168E0
:100CA0000E4801F00C03042B11D0082B0FD10C4877
:100CB000C1F38343C903C05C0AD55168084AC1F334
:100CC0004041921E515C054A5043B0FBF1F0704721
:100CD00004494843704700000010024000127A00A7
:100CE0006243000800093D002DE9F84F040070D070
:100CF0002078C04DC00749D06868C0F38100012842
:100D000007D06868C0F38100022809D16868C00371
:100D100006D52868800339D560680028E7D035E01B
:100D20006068B0F5803F0BD010B1B0F5A02F11D0A6
:100D3000286820F480302860286820F4802002E0B1
:100D4000286840F480302860606890B1FFF722FE88
:100D500006460AE0286840F480202860F0E700BFDB
:100D6000FFF718FE801B642873D828688003F7D526
:100D70000CE0FFF70FFE064605E000BFFFF70AFE96
:100D8000801B6428F0D828688003F7D420789A4E16
:100D900080074FF001094FF0000839D5686810F05E
:100DA0000C0F07D06868C0F38100022809D1686879
:100DB000C00306D42868800714D52069012808D10B
:100DC00010E02069B0B1C6F80090FFF7E3FD0746D8
:100DD00005E00AE1FFF7DEFDC01B0228C4D8286841
:100DE0008007F7D52868616920F0F80040EAC10063
:100DF00028600DE0C6F80080FFF7CCFD074604E050
:100E0000FFF7C8FDC01B022823D828688007F7D445
:100E1000207800072CD57948A169D9B1C0F8009095
:100E2000FFF7B8FD074604E0FFF7B4FDC01B02283A
:100E30000FD8686A8007F7D571484FF4FA510068F7
:100E4000B0FBF1F0009000BF0098411E0091FAD273
:100E50000EE080E0C0F80080FFF79CFD074604E04C
:100E6000FFF798FDC01B022875D8686A8007F7D481
:100E70002078400760D5E8690027C00008D4E869F9
:100E800040F08050E861E869012700F08050009050
:100E90005C480168C90513D40168834641F4807138
:100EA0000160FFF777FD824606E000BFFFF772FDA5
:100EB000A0EB0A0064284ED8DBF80000C005F5D589
:100EC000E06801280AD008B1052813D0286A20F06C
:100ED00001002862286A20F0040002E0286A40F03D
:100EE00001002862E06841F2883B98B1FFF752FDAB
:100EF00082460BE0286A40F004002862EEE700BF5B
:100F0000FFF748FDA0EB0A0159455AD8286A800727
:100F1000F6D50CE0FFF73EFD824605E0FFF73AFD0F
:100F2000A0EB0A0159454CD8286A8007F6D41FB1B6
:100F3000E86920F08050E861E06988B36968C1F32E
:100F40008101022944D00228C6F8608004D0FFF74E
:100F500021FD044638E034E0FFF71CFD074604E0BD
:100F6000FFF718FDC01B02282BD828688001F7D492
:100F7000206AB0F5803F05D16868A16820F4003090
:100F800008436860D4E908010843696821F47411D2
:100F900008436860C6F86090FFF7FCFC044606E072
:100FA00025E000BFFFF7F6FC001B022809D82868DF
:100FB0008001F7D51BE000BFFFF7ECFC001B022807
:100FC00002D90320BDE8F88F28688001F4D40EE030
:100FD0000128F7D06868226A00F48031914204D178
:100FE000616A00F47010884201D00120EAE7002015
:100FF000E8E7000000100240000042428004424244
:10100000240000200070004070B515460E46040014
:1010100007D0A069B0F5807F03D094F8410010B1EB
:1010200007E0012070BD002084F84000204600F059
:101030001DF804F108012068FFF756FA3146A2684E
:101040002068FFF785FAD4E901022946236BFFF7F0
:101050002DFAA168206850F8212042F0010240F8E2
:101060002120012084F84100002070BDFFF74EBB15
:101070007047704710B5040003D094F83D0010B1DC
:1010800007E0012010BD002084F83C00204600F05D
:101090001EF8022084F83D00211D206801F050F860
:1010A000012084F8460084F83E0084F83F0084F86C
:1010B000400084F8410084F8420084F8430084F83A
:1010C000440084F8450084F83D00002010BD7047BE
:1010D00090F83D10012901D001207047022180F8CD
:1010E0003D100168CA6842F00102CA6000680E49FA
:1010F00088420ED00D4988420BD0B0F1804F08D005
:101100000B49884205D00B49884202D00A498842DF
:1011100004D1816801F00701062903D0016841F07C
:101120000101016000207047002C014000340140A3
:101130000004004000080040000C0040704770B5FB
:101140000446006801694FF00005C943890715D4BA
:10115000C168C943890711D4E91E016101202077C4
:10116000206880698007204602D0FFF7E7FF04E08F
:1011700000F098F8204600F096F82577206801697D
:10118000C943490717D4C168C943490713D46FF04D
:1011900004010161022020772068806910F4407FFB
:1011A000204602D0FFF7CAFF04E000F07BF820469B
:1011B00000F079F8257720680169C943090716D43A
:1011C000C168C943090712D46FF008010161042006
:1011D00020772068C0698007204602D0FFF7AEFF65
:1011E00004E000F05FF8204600F05DF82577206805
:1011F0000169C943C90617D4C168C943C90613D4D4
:101200006FF010010161082020772068C06910F498
:10121000407F204602D0FFF791FF04E000F042F843
:10122000204600F040F8257720680169C943C907C6
:1012300008D1C168C943C90704D1891E016120468C
:1012400000F032F820680169C943090609D4C16871
:10125000C943090605D46FF0800101612046FFF7FC
:1012600007FF20680169C943490609D4C168C94319
:10127000490605D46FF040010161204600F01EF8D8
:1012800020680169C94389060BD4C168C94389062E
:1012900007D46FF0200101612046BDE87040FFF7E0
:1012A000E8BE70BD7047704700680349884201D1AD
:1012B000FFF776BB7047000000080040704770479A
:1012C000704710F8411F407808437047F8B501682F
:1012D00004460868CA684B6910F00F0F4FF000050C
:1012E00059D003F0010602F49077374365D0C10767
:1012F00005D0D10503D5616C41F00101616441075E
:1013000005D5D90703D0616C41F002016164810702
:1013100005D5D90703D0616C41F004016164010770
:1013200007D502F02001314303D0616C41F0080180
:101330006164616C00293AD0800604D5900602D51C
:10134000204600F072FF20684069616CC0F3801095
:10135000090700D460B3204600F040FF20684069D0
:10136000400621D52068143050E8001F21F04001CC
:1013700040E80012002AF5D1E06BA8B16D49416345
:10138000E06BFFF72BF9002811D0E06B416B01B047
:10139000BDE8F040084783060FD593060DD52046DB
:1013A000BDE8F84000F041BF2046FFF789FFF8BDD7
:1013B0002046FFF785FF6564F8BD266B2023012ECC
:1013C0007CD1C6067AD5D60678D5086848680090DC
:1013D00048694FF00206400640D5E16B0868406856
:1013E0000004000CE8D0A28D8242E5D9E08588692E
:1013F00020282DD020680C3050E8001F21F4807187
:1014000040E80012002AF5D12068143050E8001F8F
:1014100021F0010140E80012002AF5D120681430C3
:1014200050E8001F21F0400140E80012002AF5D1E9
:1014300084F84230256320680C3050E8001F21F00A
:10144000100140E80012002AF5D1E06BFFF7A2F886
:101450006663A08DE18D401A81B22AE0A08DE18DF6
:10146000401A81B2E08D0028A6D00029A4D02268BD
:101470000C3252E8000F20F4907042E80007002F71
:10148000F5D12068143050E8002F22F0010240E826
:101490000027002FF5D184F84230256320680C30F6
:1014A00050E8002F22F0100240E80023002BF5D175
:1014B00066632046FFF703FFF8BDFFE705062BD55F
:1014C000150629D594F841002128F5D1A068B0F57A
:1014D000805F01D12069B0B1206A411C216221687E
:1014E00000784860E08C401E0004000CE084E3D1EA
:1014F0002068C16821F08001C1602068C16841F0A6
:101500004001C160D8E7206A0088C0F30800486045
:10151000206A801C2062E5E74006CDD55006CBD579
:10152000CA68204622F04002CA6084F8413000F0C8
:101530003DF8C1E7CD21000890F84230202B01D0C2
:101540000220704721B11AB10023036300F0CEBE20
:101550000120704730B50068114988420CD111480C
:1015600041880A0408D402464C0412784FF0000364
:1015700006D50A2A01D0438030BD41F400410DE078
:101580000D2A09D0C1F30D04074D491C89B22A5513
:101590004180C729EFD830BD41F48041418030BD42
:1015A00000380140A8000020681A00207047FEE7BC
:1015B0002DE9F041354C90460D460246060AA188B9
:1015C00020462F0A4089A1F51343413B0CD0A1F5D9
:1015D000A643103B08D0A1F5AA43103B10D0A1F5BB
:1015E000C853633B25D048E000F0FAFB304600F0DA
:1015F000EBFBD0B200F0E8FBA08900F0F1FB36E095
:1016000000F0EEFB304600F0DFFB6089401C80B24A
:1016100000F0E6FBD0B200F0D7FBA08900F0E0FBC1
:10162000384600F0D1FBA089401C80B200F0D8FB06
:1016300020E0A17919B92188891A491E8AB200F0DF
:10164000CFFB160A304600F0BFFBD0B200F0BCFB67
:10165000304600F0B9FBD0B200F0B6FBA08900F034
:10166000BFFB384600F0B0FBE8B200F0ADFB3846F7
:1016700000F0AAFBE8B200F0A7FB0549208908802A
:10168000891CA1F80080BDE8F0810000581A0020F4
:10169000FE07006C1CB50425044620266068202344
:1016A000CDE9005061882088902200F057FB009619
:1016B00060880123283081B22088A268203080B25F
:1016C00000F088F8EAE700002DE9FF4F1C460E46BF
:1016D0008A46580700D00120610800EBD400203A68
:1016E00000FB01F9D0B20025DFF8C8B002905DE040
:1016F0000C2C17D0102C1CD0182C1DD0202C22D034
:10170000302C25D0602C53D102982B4900EBC0001F
:1017100001EB80104FF00008475D38061FD52748C1
:10172000026820E0029800EB4001254800EB8100B0
:10173000F0E7244902980FE00298234900EBC0002B
:1017400001EB8000E6E72149029801EBC010E1E7D8
:1017500002981F4900EBC00001EB0010DAE70D987A
:1017600028B91648426831460098FFF721FF7806ED
:10177000070E761CBBF80200B6B2B04218D9A6EB31
:101780000A00A04209D100985646401C80B2009041
:10179000BBF8001081420BD906E008F1010000F00F
:1017A000FF08B8F1080FB8D36D1CADB24D459FD3FB
:1017B000BDE8FF8F581A00203CC00008A0000020A0
:1017C0008C43000800480008F04D00084C5B0008FE
:1017D000CC8A00082DE9FF4F8BB08146DDF8608090
:1017E000154600EB080AC8F1000009EB4007AE4EB1
:1017F000404602F048FA00248346224633460291CE
:1018000002F054FA06464846059102F03CFACDE94A
:1018100000013246059B02F047FB02F007FA0990EF
:10182000A9EB0806621E5846029902F041FD834664
:101830000B460391DDE900015A4602F035FB02F048
:10184000F5F90490DDE900015A46039B02F03EF9E8
:1018500002F0ECF9019015F1814F009425D0434638
:101860002E2248460C99FFF72FFF9048DFF840B230
:101870004FF00A09854260DA8E4885425DD2B8B2DF
:101880004346202200940C99FFF71EFF0998434617
:1018900080B2202200940C99FFF716FF5D45B0B28C
:1018A0004346009436D32D2235E0B8B24346202279
:1018B0000C99FFF709FF0998434680B22022009453
:1018C0000C99FFF701FFB0B24346202200940C9917
:1018D000FFF7FAFE0498434680B2202200940C9948
:1018E000FFF7F2FE43462022009448460C99FFF78A
:1018F000EBFE0198434680B2202200940C99FFF73A
:10190000E3FE0E9802287FD11FFA8AF04346202278
:10191000009474E020220C99FFF7D6FE284602F0CE
:10192000ADFB01000498009486B200D549423031E5
:10193000CAB2434630460C9932E05F48854266DAC7
:101940005E48854263D2B8B24346202200940C9987
:10195000FFF7BAFE09985D4580B24346009401D373
:101960002D2200E020220C99FFF7AEFE284602F05F
:1019700085FB074690FBF9F00094002800DA40420E
:101980003030C2B2B0B243460C99FFF79DFE97FBD0
:10199000F9F209FB12716EE03031CAB243460C997C
:1019A000FFF792FE0E984149012828466AD002F0BE
:1019B00081FB02F063FB4E4690FBF6F109FB11013F
:1019C0000198009480B2002900DA49423031CAB24D
:1019D00043460C99FFF778FE3749284602F06AFB28
:1019E00002F04CFB90FBF6F106FB1100009400287E
:1019F00000DA40423030C2B21FFA8AF043460C99F6
:101A000000E001E0FFF760FE0FB0BDE8F08F5D453C
:101A1000B8B24346009401D32D2200E020220C9955
:101A2000FFF752FE284602F029FB642190FBF1F1FA
:101A300083460998009480B2002900DA4942303187
:101A4000CAB243460C99FFF73FFE4F469BFBF7F0A7
:101A500090FBF7F109FB11000094002800DA4042E6
:101A60003030C2B2B0B243460C99FFF72DFE9BFB5B
:101A7000F7F107FB11B10498009480B200298BDACA
:101A8000494289E702F016FB02F0F8FA90FBF9F2FE
:101A900009FB12010198009480B2002900DA494242
:101AA0003031CAB2AAE700000000F83F0000204130
:101AB00000008080000020C10000C8420000C8C2B1
:101AC0002DE9FF4F074683461D46580700D00120E9
:101AD00000EBD50000FB05FA0C2D24D0102D39D0D9
:101AE000182D4FD0202D65D0282D7DD0302D7AD0C7
:101AF000602D16D113789048002400BF04EB4411E8
:101B000001EB042150F8211091F800C0634504D185
:101B100092F801C049788C457ED0641CA4B2072C91
:101B2000ECD3BDE8FF8F11788448002404EB441304
:101B300003EB042350F8233093F800C0614504D12F
:101B400092F801C05B789C4567D0641C2404240C87
:101B5000ECD0E6E711787A48002400BF04EB441388
:101B600003EB042350F8233093F800C0614504D1FF
:101B700092F801C05B789C456AD0641C2404240C54
:101B8000ECD0CEE711786F48002400BF04EB44137B
:101B900003EB042350F8233093F800C0614504D1CF
:101BA00092F801C05B789C4552D0641C2404240C3C
:101BB000ECD0B6E711786448002400BF04EB44136E
:101BC00003EB042350F8233093F800C0614504D19F
:101BD00092F801C05B789C4538D0641CA4B2142CE8
:101BE000ECD39EE700E019E011785848002400BFCC
:101BF00004EB441303EB042350F8233093F800C0A4
:101C0000614504D192F801C05B789C4520D0641CEA
:101C10002404240CECD084E718E019E013784C4835
:101C2000002400BF04EB441101EB042150F8211003
:101C300091F800C0634504D192F801C049788C4501
:101C400004D0641CA4B2272CECD36AE7601C98D0A3
:101C500000206CE00C2D0CD0102D10D0182D14D0BD
:101C6000202D18D0282D1CD0302D20D0602D24D030
:101C70002DE004EB441000EB0421304822E004EB9B
:101C8000441000EB04212E481CE004EB441000EB50
:101C900004212C4816E004EB441000EB04212A48F0
:101CA00010E004EB441000EB042128480AE004EBA8
:101CB000441000EB0421264804E004EB441000EB40
:101CC00004211D4800EB810101EB080006794FF06B
:101CD0000009300602D51F48026803E00D9828B9B4
:101CE0001C48426838460199FFF762FC7006060EF0
:101CF00019487F1CBFB20088B8428CD9A7EB0B00F3
:101D0000A8420AD101985F46401C80B20190124857
:101D100041880198814298D906E009F1010000F05C
:101D2000FF09B9F1080FD4D308F1010080B2804651
:101D300050458FD3F5E6000078B20208FC95010803
:101D4000809A0108049F010888A30108D8FD0108B2
:101D50005C020208A0000020581A00202DE9F84F6C
:101D6000044600F0FF0910190E46DDE90AB51FFA16
:101D700080F8981987B24FF0000A1EE0444503D35B
:101D800006EB0B004C4686B2BE421BD27F2A5B4656
:101D9000CDF800A009D92A4631462046FFF790FE2B
:101DA00004EB0B0084B2AD1C07E031462046FFF780
:101DB0008BFC04EB5B0084B26D1C2A787F2A01D077
:101DC000202ADBD2BDE8F88F01B5BDF80000ADF8E0
:101DD0000000BDF800000149088008BD0008006C43
:101DE00001B5BDF80000ADF80000BDF800000149E4
:101DF000088008BDFE07006C10B58CB0364A002183
:101E0000364800F01DFB364918240B1D086002A857
:101E1000CDE90040802233A1384801F049FC03A8F5
:101E2000CDE900402E4B80221B1D35A1334801F027
:101E30003FFC04A8CDE90040294B80221B1D35A1A1
:101E40002E4801F035FC05A8CDE90040244B802246
:101E50001B1D36A1294801F02BFC06A8CDE9004046
:101E60001F4B80221B1D38A1244801F021FC07A82C
:101E7000CDE900401A4B80221B1D38A11F4801F0FC
:101E800017FC08A8CDE90040154B80221B1D37A187
:101E90001A4801F00DFC09A8CDE90040104B802242
:101EA0001B1D35A1154801F003FC0AA8CDE900402F
:101EB0000B4B80221B1D36A1104801F0F9FB0BA82B
:101EC000CDE90040064B80221B1D33A10B4801F0D9
:101ED000EFFB0CB010BD00003C430008A12000083F
:101EE0000000002020426174746172795F426F7853
:101EF0005F566F6C746167650000000095160008FE
:101F00002043656C6C5F54656D70726174757265A9
:101F1000000000002048565F426F6172645F5465A4
:101F20006D7072617475726500000000204D61690A
:101F30006E5F436F6E74726F6C5F54656D7072612B
:101F400074757265000000002042617474617279DA
:101F50005F426F785F506F77657200002043656C59
:101F60006C5F566F6C74616765000000204C565FB3
:101F7000566F6C746167650020496E766572746592
:101F8000725F54656D707261747572650000000057
:101F900020534F4300000000204D6F746F725F5458
:101FA000656D7072617475726500000010B58EB059
:101FB0001C216846FEF7C4F91C2107A8FEF7C0F9EA
:101FC0001C484FF02041102201601B49416006214E
:101FD00081600021C160C0E904128161C161130206
:101FE0000162C0E909139302C0E90B1341638163E5
:101FF0000F203C230090CDE9010303AC112384E8BA
:102000000E0009240691CDE9074009AC082084E8B8
:102010000F000D9107AA69460648FEF7F5FF08B1C3
:10202000FEF742FA0548C16941F48061C1610EB012
:1020300010BD0000AC000020040100A00000014021
:10204000154808B5816941F080018161816901F01D
:1020500080010091816941F040018161816901F055
:1020600040010091816941F020018161816901F0A5
:1020700020010091816941F004018161816901F0D1
:1020800004010091816941F480718161806900F4EB
:102090008070009008BD000000100240FEE7FEE7DF
:1020A000012000F077F9FBE710B5502080F311888C
:1020B000BFF34F8FBFF36F8F01F066FB18B1044978
:1020C0004FF080500860002080F3118810BD0000A0
:1020D00004ED00E030B58FB028216846FEF730F9F6
:1020E00014210AA8FEF72CF901210804CDE90010FB
:1020F0000024029402250491CDE907504FF4E0102A
:1021000009906846FEF7F0FD08B172B6FEE70F20B1
:10211000CDE90A054FF48060CDE90C4002210AA800
:102120000E94FEF7F5FC002801D072B6FEE70FB062
:1021300030BD70470148FFF702B80000F4000020EE
:10214000F0B502681C4B1D4D1D4E1E4F1E4C4FF02E
:10215000804C984209D0A04207D0604505D0A842E3
:1021600003D0B04201D0B84204D122F0700E4A68C8
:1021700042EA0E02984209D0A04207D0604505D03D
:10218000A84203D0B04201D0B84203D122F4407536
:10219000CA682A434D6922F080022A4302608A6895
:1021A000C2620A688262984201D0A04201D10969E4
:1021B000016301214161F0BD002C01400004004099
:1021C00000080040000C00400034014010B5406A97
:1021D0000021C185C184FFF773F810BD01680C317F
:1021E00051E8002F22F4907241E80023002BF5D132
:1021F0000168143151E8002F22F0010241E8002368
:10220000002BF5D1016B012909D101680C3151E88E
:10221000002F22F0100241E80023002BF5D12021ED
:1022200080F8421000210163704708B590F8421011
:10223000222901D0022008BD82684FF480539A42BF
:1022400001D1016921B1816A9A421BD04AB10AE0E9
:102250000268816A5268C2F308020A80816A891C96
:1022600008E0026972B10268526802F07F020A70E7
:10227000816A491C8162C18D491E0904090CC1850E
:1022800003D01BE002685268F1E70168CA6822F0D7
:102290002002CA600168CA6822F48072CA600168BC
:1022A0004A6922F001024A61202180F8421000218F
:1022B0004163026B012A03D0FFF74CF9002008BDEF
:1022C000016301680C3151E8002F22F0100241E84F
:1022D0000023002BF5D101680A68D20602D50A68EE
:1022E00049680091818DFEF7EAFFE7E78162828508
:1022F000C28500214164222180F84210016921B188
:102300000168CA6842F48072CA6001684A6942F092
:1023100001024A610068C16841F02001C1600020EB
:102320007047000010B50848FEF7D0FF0648FEF7DA
:10233000C8FF2028FAD1012204490348FFF7FCF81E
:102340000028F8D110BD0000301B0020A80000209C
:10235000FEE70907090E002804DB00F1E02080F801
:102360000014704700F00F0000F1E02080F8141D09
:1023700070477047FEF71CFBFFF7ACFEFFF760FEEF
:10238000FFF714FE00F020F8FFF736FD00F038F8F4
:10239000FEE7000010B5EFF3058149B9EFF31081B6
:1023A00031B908490968022905D1EFF3118111B14A
:1023B0006FF0050403E0002408B100F0E3FD2046BF
:1023C00010BD000078000020EFF3058058B9EFF34E
:1023D000108040B909490868022801D030B109E0ED
:1023E000EFF3118030B16FF00500704701200860F5
:1023F000002070474FF0FF30704700007800002049
:1024000010B5EFF3058060B9EFF3108048B90B49C0
:102410000868022802D0012806D00BE0EFF31180F3
:1024200040B16FF0050010BD0220086000F012FE00
:10243000002010BD4FF0FF3010BD000078000020DC
:10244000F0B585B04FEA01034FF00004EFF30581CA
:102450000394A1BBEFF3108189BB214909680229CC
:1024600002D1EFF3118151BB48B3802618218DF8BA
:10247000104004AD42B3176807B13D4697691FB1DC
:1024800039467F1E382F02D21779FF0702D000206D
:1024900005B0F0BD576907B1BE08D2F808C0BCF15D
:1024A000000F0DD0D4685C2C18D312693AB137B143
:1024B0008DE806103246294601F027F903900DE019
:1024C000D7685FB912694AB903AACDE90012B2B25E
:1024D000294601F0EDF8012800D003940398D7E7CE
:1024E000780000202DE9F041134C0F46054666693F
:1024F0002068001D00F016FC681C07D137B1216868
:10250000BDE8F0410D48091D00F05CBC2068354471
:10251000B5424560216805D2A068BDE8F041091DBB
:1025200000F038BC6068091D00F034FC206B854267
:1025300000D22563BDE8F081280000202C06002091
:102540002DE9F041054600F049FC2D4C2069401C66
:10255000206120682B4F10B1E06930B32BE025607B
:102560002069012827D1002606EB860007EB8000B2
:1025700000F002FC761C382EF6D3234800F0FCFB5A
:102580002148143000F0F8FB1F48283000F0F4FB1D
:102590001D483C3000F0F0FB1B48503000F0ECFBD5
:1025A000194860601430A06005E02068E96AC06ADC
:1025B000884200D82560E06A401CE0626864E86AEE
:1025C000A169884200D9A06100EB800007EB800080
:1025D000291D00F0F7FB00F021FCE06900280CD079
:1025E0002068E96AC06A884207D208494FF08050E3
:1025F0000860BFF34F8FBFF36F8FBDE8F08100001D
:10260000280000207C010020DC05002004ED00E013
:1026100038B500F0E3FB104CA068C8B90F4800F0D3
:10262000ABFB0E48143000F0A7FB0C4820601430C0
:1026300060600A4B00202833009003F15002102103
:102640000A2000F0D9FDA06010B105A100F064FCE3
:10265000BDE8384000F0E2BB6400002040060020E6
:10266000546D72510000000030B4026C0B46002A19
:102670000BD0C1681144C1604468A14201D3016814
:10268000C16030BC1846FDF70EBE30BC70472DE966
:10269000F041856B174604460026026C82B1C7B133
:1026A000E068FDF700FEE168206C091AE16022682D
:1026B000914202D26168081AE060022F16D017E03A
:1026C0002068A8B9606801F0C3F806460020606081
:1026D0000EE0A068FDF7E7FD216CA0680844A0604B
:1026E0006168884204D32068A06001E005B16D1ED6
:1026F0006D1CA5633046BDE8F08110B5044690F826
:10270000590058B101280CD002280FD0502080F376
:102710001188BFF34F8FBFF36F8FFEE7206B00F080
:1027200091FB2046BDE8104000F08CBB10BD0000BE
:1027300010484FF44061420706D0C01D0D4920F0FB
:102740000700411AC1F540610B4A00230144C2E968
:1027500000030839103A21F0070111604B600B604B
:102760000B1AC0E9001393604FF000405360D06033
:1027700070470000100E00208C000020144E154CF5
:10278000A6F29C474FF08058DFF84C9012E000BF53
:1027900000F024FBF068C568281D00F0C3FA20692A
:1027A000401E2061E068401EE06000F037FB2846D4
:1027B000FFF7A3FFE0680028EAD138680128F9D9BB
:1027C000C9F80080BFF34F8FBFF36F8FF2E70000AF
:1027D000180600202800002004ED00E070B51D461A
:1027E000049C51B1C4F80020C4E90F010121204626
:1027F00000F036FD84F84C5070BD2460F4E72DE9FC
:10280000F0470E46DDE90984174682469100994655
:10281000089DA522206BFDF78BFD6FF00301206B57
:1028200001EB8701084420F00707780707D0502004
:1028300080F31188BFF34F8FBFF36F8FFEE722182D
:10284000315C82F83410315C11B1401C1028F6D391
:10285000002684F84360382D00D33725E562C4E9AB
:102860001356201D00F093FA04F1180000F08FFABF
:102870002461C5F138006462A061666584F858601F
:102880004A465146384600F03BFA2060B8F1000F46
:1028900001D0C8F80040BDE8F087000030B511490C
:1028A00000E011460A688242FBD34B685C18844200
:1028B00003D1406818444860084643681C18944295
:1028C00009D1084C103C2468A24209D052681A442D
:1028D00042600A6812680260814200D0086030BD20
:1028E0000460F9E78C00002070B5002441600B4DB6
:1028F0000061914206D8D11A8269914206D2011D27
:10290000686807E09A4203D2994201D3012403E0A8
:10291000011D286800F03EFA204670BD64000020CA
:1029200010B5044600F05AFAA06B28B15FF000041D
:1029300000F074FA204610BD0124F9E730B589B0E3
:10294000304D55E00498002806DADDE90601059AC5
:102950009047049800284BDB069C606910B1201D4D
:1029600000F0E0F902A800F0B9F8024604980A283D
:102970003ED2DFE800F00505053D263705053D267A
:102980000598A169034601442046FFF7ADFF00B357
:10299000616A20468847E069012829D1002000901B
:1029A0000598A169002342181946204601F05AF8FB
:1029B00078B9502080F31188BFF34F8FBFF36F8F2A
:1029C000FEE70598A06128B1811813462046FFF75D
:1029D0008BFF0DE0502080F31188BFF34F8FBFF3C2
:1029E0006F8FFEE794F82C0010B9204600F02AFA09
:1029F000002204A9A86800F085FD0028A2D109B032
:102A000030BD0000640000202DE9FC410F46054662
:102A100000F064FB01A800F061F80446019818B1C9
:102A200000F08EFFBDE8FC81224EAFB170680068F7
:102A3000A8B30027291B3A46B06800F081FA00F0DD
:102A40007FFF0028EED11C494FF080500860BFF393
:102A50004F8FBFF36F8FE5E7A542EBD800F070FF13
:102A600030682746C068C468201D00F05BF9E06943
:102A7000012810D1A0692B4641193A462046FFF79C
:102A800033FF40B100200346014600902A4620460D
:102A900000F0E8FF20B1616A20468847C2E707E0FE
:102AA000502080F31188BFF34F8FBFF36F8FFEE785
:102AB0000127BFE76400002004ED00E006484168FC
:102AC000096829B14168C968C968496801637047E4
:102AD0004FF0FF31FAE700002800002070B50546EE
:102AE00000F04CFE064E04463069844203D200F0EA
:102AF00009F8012000E0002028602046346170BD04
:102B000064000020F8B5194D1FE0C068C46806686D
:102B1000201D00F007F9616A20468847E069012816
:102B200013D1A0693044B04206D924616060211DF0
:102B3000286800F02FF908E00020034601460090C5
:102B40003246204600F08EFF38B12868016800291F
:102B5000DBD16968C5E90010F8BD502080F3118809
:102B6000BFF34F8FBFF36F8FFEE7000064000020BC
:102B700008484068401C4FF0500080F3118804D092
:102B8000BFF34F8FBFF36F8FFEE7BFF34F8FBFF3DE
:102B90006F8FFEE794000020074C2068016841B168
:102BA000C0680021D0F80000FFF72EFFFFF7C6FE37
:102BB000F3E701210020F7E7640000202DE9F04150
:102BC000044600F00BF994F9455004F1240609E09D
:102BD000606A48B1304600F07BFE08B100F000FAB0
:102BE0006D1E6DB2002DF3DC4FF0FF3684F84560AA
:102BF00000F014F900F0F2F894F9445004F11007D1
:102C000009E0206948B1384600F062FE08B100F0E2
:102C1000E7F96D1E6DB2002DF3DC84F84460BDE869
:102C2000F04100F0FBB800002DE9F0410546002717
:102C300000F054FA314E306808B9FFF779FDF068BA
:102C400005424BD1C5B3083568070ED005F0070023
:102C5000C0F108000544680707D0502080F31188B0
:102C6000BFF34F8FBFF36F8FFEE72DB370688542C0
:102C700034D82248103001460C6801E020460C464A
:102C80006168A94202D221680029F7D131688C42DB
:102C900024D007682168016060680837411B10294B
:102CA0000FD96019420708D0502080F31188BFF374
:102CB0004F8FBFF36F8FFEE710E041606560FFF755
:102CC000EDFD61687068401A7060B268904200D291
:102CD000B060F06801430020C4E9000100F030FE5C
:102CE000780707D0502080F31188BFF34F8FBFF3D0
:102CF0006F8FFEE73846BDE8F08100007C000020C1
:102D000010B5031F4FF080741C601B1F21F00101E0
:102D10001960191F024B0B60143940380A6010BD4E
:102D2000712B0008D0E9013201699A60D0E90123D2
:102D30005A604A68824201D182684A600022026178
:102D40000868401E0860086870470000034B036075
:102D500003F15C0008608020106070475807002075
:102D6000044B036003F15C0008604FF48070106056
:102D700070470000B409002000F108014FF0FF3255
:102D8000C0E90112C16001610021016070470021AA
:102D90000161704730B50B685A1C02D000F108027F
:102DA00002E0026904E02246546825689D42FAD98F
:102DB00053684B6099608A60516008610168491CE2
:102DC000016030BD42684A6093688B6093685960C7
:102DD000916008610168491C01607047502080F3D0
:102DE0001188BFF34F8FBFF36F8F0A494868401CAB
:102DF000486001280CD10848006810F0FF0F07D088
:102E0000502080F31188BFF34F8FBFF36F8FFEE721
:102E1000704700009400002004ED00E00849486875
:102E200028B1401E486001D180F3118870475020BE
:102E300080F31188BFF34F8FBFF36F8FFEE7000061
:102E40009400002070B5002827D0144DA0F108048C
:102E50006168E868014207D1502080F31188BFF310
:102E60004F8FBFF36F8FFEE722683AB1502080F397
:102E70001188BFF34F8FBFF36F8FFEE7814361600F
:102E800000F02CF960686968084468602046FFF724
:102E900005FDBDE8704000F053BD70BD7C00002012
:102EA0004FF0E02000210161816105494FF47A7201
:102EB0000968B1FBF2F1491E4161072101617047C8
:102EC0002400002010B5FDF7C9F9114910280ED3D0
:102ED00000F1E02090F8F0030A78904207D25020E9
:102EE00080F31188BFF34F8FBFF36F8FFEE7094860
:102EF0000068896800F4E060884207D9502080F3B8
:102F00001188BFF34F8FBFF36F8FFEE710BD000036
:102F1000940000200CED00E010B5084B002200BF2B
:102F200053F832401CB1521C082AF9D310BD43F8A3
:102F3000321003EBC201486010BD00003C010020CC
:102F400070B515460E460446FFF748FF94F9441045
:102F50000020491C01D184F8440094F94510491C13
:102F600001D184F84500FFF759FFA06B28B92A4624
:102F7000314604F1240000F051F82046BDE87040CD
:102F8000FFF71CBE10B5020014D00F48806B38B19B
:102F9000502080F31188BFF34F8FBFF36F8FFEE790
:102FA00000F09CF800211046FFF79CFA00F0C8FCE6
:102FB000002807D105494FF080500860BFF34F8FBC
:102FC000BFF36F8F10BD00002800002004ED00E06B
:102FD00002498A6A026049694160704728000020FE
:102FE00001490120486270472800002010B50C46B6
:102FF00050B1094909681831FFF7CCFE2046BDE8F9
:1030000010400121FFF76EBA502080F31188BFF302
:103010004F8FBFF36F8FFEE72800002070B5144676
:103020000D4668B10A4909681831FFF7CBFE0CB1AB
:103030004FF0FF3521462846BDE87040FFF752BAF1
:10304000502080F31188BFF34F8FBFF36F8FFEE7DF
:103050002800002030B587B00024039405AA04A9F5
:1030600003A80494FFF772FEDDE903010094CDE9A3
:103070000110002315A11748059A00F046FB164DD4
:10308000002868631FD000F0BDFC012809D0401C57
:1030900019D1502080F31188BFF34F8FBFF36F8F8A
:1030A000FEE7502080F31188BFF34F8FBFF36F8F7F
:1030B0004FF0FF3028630120E8616C6107B0BDE884
:1030C000304000F045B807B030BD000049444C45E1
:1030D000000000007D270008280000200248816BC6
:1030E000491C81637047000028000020164810B575
:1030F000816B11B10121416210BD002141628169E2
:10310000124A01E0B9B1491E01EB810352F82330A4
:10311000002BF7D001EB810302EB830202F10804DC
:1031200053685B685360A34201D15B685360DA68FF
:103130000260816110BD502080F31188BFF34F8F72
:10314000BFF36F8FFEE70000280000207C01002005
:103150001CB5264908780190FF20087008788DF882
:1031600000009DF800009DF8002000F0F000904263
:1031700007D0502080F31188BFF34F8FBFF36F8FBC
:10318000FEE79DF800001A4B00F050001870072071
:10319000986005E09DF8002052008DF80020401E48
:1031A0009DF800201206F5D49860032807D050201F
:1031B00080F31188BFF34F8FBFF36F8FFEE74FF49B
:1031C00040709860019808700A48016841F47001E5
:1031D0000160016841F070410160FFF761FE00206D
:1031E0005860FDF705F800201CBD000000E400E079
:1031F0009400002020ED00E038B5049D18B153B1D3
:10320000CAB181B120E0502080F31188BFF34F8F05
:10321000BFF36F8FFEE7502080F31188BFF34F8F0D
:10322000BFF36F8FFEE7502080F31188BFF34F8FFD
:10323000BFF36F8FFEE739B1502080F31188BFF3E1
:103240004F8FBFF36F8FFEE750241C46012384F895
:1032500046302B460094FFF7C1FA204638BD0000E7
:1032600070B50D46040025D0FFF7B8FDD4E90F2056
:10327000216802FB001161600021A1632168A16047
:103280000A46D4E90F01401E00FB0121E1602146FE
:103290004FF0FF3001F8440F487004F110008DB179
:1032A000FFF76AFD04F12400FFF766FDFFF7B6FDA6
:1032B000012070BD502080F31188BFF34F8FBFF302
:1032C0006F8FFEE721690029F0D000F001FB002894
:1032D000ECD004494FF080500860BFF34F8FBFF32C
:1032E0006F8FE3E704ED00E02DE9FF4782B01D4654
:1032F0008A464FF00008040003D0BAF1000F08D04E
:1033000011E0502080F31188BFF34F8FBFF36F8F10
:10331000FEE7206C38B1502080F31188BFF34F8F47
:10332000BFF36F8FFEE7022D0AD1E06B012807D0B3
:10333000502080F31188BFF34F8FBFF36F8FFEE7EC
:1033400000F00EFA3F4F4FF000094FF0805648B999
:10335000049838B1502080F31188BFF34F8FBFF32A
:103360006F8FFEE7FFF73AFDA06BE16B884207D352
:10337000022D05D00498D0B1B8F1000F1AD01EE08C
:103380002A4651462046FFF782F9616A19B104F1D5
:10339000240000F09DFA20B13E60BFF34F8FBFF3D1
:1033A0006F8FFFF73BFD012006B0BDE8F087FFF708
:1033B00035FD22E06846FFF70BFE4FF00108FFF7EE
:1033C0002DFDFFF78BFEFFF709FD94F94400401C2B
:1033D00001D184F8449094F94500401C01D184F84F
:1033E0004590FFF71BFD04A9684600F027F930B1AE
:1033F0002046FFF7E3FB00F0A3FA0020D4E7FFF735
:10340000EDFCA06BE16B884213D1FFF707FD04F1DF
:1034100010000499FFF7EAFD2046FFF7CFFB00F00C
:103420008FFA00289ED13E60BFF34F8FBFF36F8F9E
:1034300098E7FFF7F3FC2046FFF7C0FB00F080FAA7
:1034400090E7000004ED00E02DE9F0471F469046AC
:103450008946040003D0B9F1000F08D011E05020D4
:1034600080F31188BFF34F8FBFF36F8FFEE7206C9F
:1034700038B1502080F31188BFF34F8FBFF36F8FA7
:10348000FEE7022F0AD1E06B012807D0502080F31D
:103490001188BFF34F8FBFF36F8FFEE7FFF712FD69
:1034A0005020EFF3118680F31188BFF34F8FBFF3E5
:1034B0006F8FA06BE16B884206D3022F04D00020EF
:1034C00086F31188BDE8F08794F945503A4649469D
:1034D0002046FFF7DCF8681C04D06D1C84F84550CA
:1034E0000120EDE7606A0028FAD004F1240000F022
:1034F000EFF90028F4D0B8F1000FF1D00121C8F89D
:103500000010EDE72DE9F747002683B08A46040056
:1035100003D0BAF1000F08D011E0502080F31188D9
:10352000BFF34F8FBFF36F8FFEE7206C38B1502091
:1035300080F31188BFF34F8FBFF36F8FFEE700F06A
:103540000FF9DFF8F4804FF000094FF0805748B9C9
:10355000059838B1502080F31188BFF34F8FBFF327
:103560006F8FFEE7FFF73AFCA56BC5B151462046C9
:10357000FFF77AF86D1EA563206950B104F11000C1
:1035800000F0A6F928B1C8F80070BFF34F8FBFF361
:103590006F8FFFF743FC012006B0BDE8F087059868
:1035A00008B11EB106E0FFF739FC27E06846FFF7D7
:1035B0000FFD0126FFF732FCFFF790FDFFF70EFC31
:1035C00094F94400401C01D184F8449094F94500DA
:1035D000401C01D184F84590FFF720FC05A96846FE
:1035E00000F02CF8002820460AD0FFF7E7FA00F098
:1035F000A7F92046FFF794F90028B3D00020CBE7C5
:10360000FFF78EF990B104F124000599FFF7EEFC65
:103610002046FFF7D3FA00F093F90028A2D1C8F8AA
:103620000070BFF34F8FBFF36F8F9BE72046FFF70C
:10363000C5FA00F085F995E704ED00E02DE9F041C9
:103640000C46050011D0C4B1FFF7C8FB174B5A69EF
:103650006E682068911B471C17D02F689B6A9F4299
:1036600019D0964217D8012410E0502080F3118819
:10367000BFF34F8FBFF36F8FFEE7502080F31188A9
:10368000BFF34F8FBFF36F8FFEE70024FFF7C6FB3A
:103690002046BDE8F081884205D9401A20602846BE
:1036A000FFF796FCF1E700202060DCE7280000200F
:1036B0002DE9FF5F8346DDE90E87994616468A4667
:1036C0009000FFF7B1FA05001CD05C20FFF7ACFAC0
:1036D000040014D00020256384F85900CDE902408D
:1036E000CDE900874B46324651465846FFF787F8EA
:1036F0002046FEF725FF012004B0BDE8F09F2846D4
:10370000FFF7A0FB4FF0FF30F6E7F0B585B0DDE93D
:103710000B640A9DA6B1DCB15C27009726630226E4
:1037200084F85960002604AFCDE90246CDE9005780
:10373000FFF765F82046FEF703FF049805B0F0BDDB
:10374000502080F31188BFF34F8FBFF36F8FFEE7D8
:10375000502080F31188BFF34F8FBFF36F8FFEE7C8
:103760000548C16919B1806B18B10020704701206C
:10377000704702207047000028000020014840697F
:1037800070470000280000202DE9F0412E4C002752
:10379000A06B40B1206A401C2062606A00B1012722
:1037A0003846BDE8F0816669761C666113D16068B1
:1037B000006838B1502080F31188BFF34F8FBFF3FA
:1037C0006F8FFEE76068A1686160A060A06A401C1E
:1037D000A062FFF773F9206BDFF87080864209D38F
:1037E0006068006880B16068C068C56868688642C3
:1037F0000DD220632068C06A00EB800158F82100D8
:103800000128CAD90127C8E74FF0FF30F1E7281D8A
:10381000FFF788FAA86A18B105F11800FFF782FAD5
:10382000E86AA169884200D9A06100EB800108EB39
:103830008100291DFFF7C6FAE86A2168C96A884233
:10384000CED30127CCE70000280000207C01002017
:1038500070B504004FF0000133D01B4D286884423E
:1038600007D0502080F31188BFF34F8FBFF36F8FC5
:10387000FEE7206D38B1401E2065E36CE26A9A4293
:103880001FD040B11DE0502080F31188BFF34F8F4F
:10389000BFF36F8FFEE7201DFFF744FAE06CE06294
:1038A000C0F13800A061E06AA969884200D9A86126
:1038B000064900EB800001EB8000211DFFF782FA32
:1038C0000121084670BD0000280000207C01002076
:1038D00070B5C068C46854B104F118000646FFF71B
:1038E00021FA144DA86B50B13146134815E0502011
:1038F00080F31188BFF34F8FBFF36F8FFEE7201D5A
:10390000FFF710FAE06AA969884200D9A8610B495B
:1039100000EB800001EB8000211DFFF753FAE06A05
:103920002968C96A884202D90120686270BD0020F6
:1039300070BD000028000020040600207C0100204B
:103940002DE9F0472C4D00242746A86B38B1FFF72E
:1039500045FAA86B401EA863A86B40B146E0502012
:1039600080F31188BFF34F8FBFF36F8FFEE7296994
:10397000224E0120D1B3A6F5916980463068E0B1AE
:10398000F068C46804F11800FFF7CCF9201DFFF7B8
:10399000C9F9E06AA969884200D9A86100EB8001F1
:1039A00009EB8100211DFFF70DFAE06A2968C96A59
:1039B0008842E3D3C5F82480E0E70CB1FFF77EF836
:1039C0002C6A4CB14FEA0806FFF7DEFE00B16E62CA
:1039D000641EF9D100202862686A38B108490127BD
:1039E00038070860BFF34F8FBFF36F8FFFF716FAEA
:1039F0003846BDE8F08700002800002004060020BB
:103A000004ED00E010B586B0FEF702FE114CA06890
:103A1000B8B100200390049005AA04A903A8FFF7F9
:103A20009FF9DDE9032102208DE8070000230AA1A8
:103A30000B48059AFFF769FEE06010B106B001205F
:103A400010BD502080F31188BFF34F8FBFF36F8FED
:103A5000FEE7000064000020546D7220537663007E
:103A6000992B00082DE9FF411E46134602000A9DCE
:103A70004FF0000016D0144CA768002F0FD0CDE9EE
:103A800000130292062917DAFFF76AFE02284FF0A8
:103A900000030FD000226946A068FFF725FC04B0A0
:103AA000BDE8F081502080F31188BFF34F8FBFF342
:103AB0006F8FFEE72A46EEE7002332466946384616
:103AC000FFF7C2FCEBE700006400002010B591EAAC
:103AD000030F48BF83F0004300F1EE81841A71EBBD
:103AE000030C05D2121943EB0C03001B61EB0C0114
:103AF000DFF824E14FEA1154A4EB135C1EEA430FF4
:103B000018BF9EEA445F73D023EA0E03DCF1200E57
:103B100021EA045143F4801332D322FA0CFE10EB55
:103B20000E0023FA0CFE41EB0E01CCF1200E03FA3D
:103B30000EFE10EB0E0051F10001B1F5801FCCF12B
:103B4000200E32D201EB045112FA0EF2BDE8104001
:103B500058BF7047401C38BF5FEA420218BF704729
:103B6000002814BF20F0010041F100014FEA410399
:103B700013F5001F38BF7047A1F1C04100F08EB9A6
:103B8000012A43EB0302ACF1200CDCF11F0E32BF23
:103B90004FF0000E23FA0CF310EB030041EB04513D
:103BA000B4EB115FD0D0A1EB045101F580114908AD
:103BB0005FEA300001EB04510ED350F1000038BF32
:103BC00012FA0EFE08D1BDE81040C9E7401C38BF0C
:103BD0005FEA4202CAD1C3E7BDE810404FEA4103A1
:103BE00013F5001F38BF7047A1F1C04100F056B96E
:103BF0009EEA445F08D011EA5E0FBDE8104004BFA2
:103C000001F0004100207047BDE8104070B500F0A1
:103C1000F7F800BF64FBBE3E0000E0FF02494FF032
:103C2000000000F013BB00BF0000F87F4FEA115303
:103C3000A3F58063D3F11E03A8BFD3F1200C08DBEA
:103C40004FF0004242EAC12252EA505232FA03F0E7
:103C5000704709420BD4102BC4BF0020704703F5F6
:103C6000787CBCF1FF3F05D04FF0FF3070474FF03C
:103C70000000704770B500F0C3F800BF499224807F
:103C800000207047F0E7B0FA80F310FA03F10AD091
:103C9000C3F11D0303F580634FEA41504FEA03521D
:103CA00002EBD12170474FF000007047DFF848C1A8
:103CB00070B51CEA111E1EBF1CEA13159EEA0C0FFC
:103CC00095EA0C0F00F06F8081EA030423EA4C139D
:103CD0004EEAD47E21EA4C1141F4801143F4801362
:103CE000AE44A1FB024CA0FB0365AEF17F7E36190A
:103CF00055EB0C05A1FB034C4CF10003A0FB021C8F
:103D000016EB0C06654153F10003094218BF46F05B
:103D1000010613F4007F0BD14FEA03314FEA05305F
:103D2000340341EA155140EA16506FF003020AE0ED
:103D30004FEAC3214FEAC520F40241EA555140EA57
:103D400056506FF0020202EB2E4201EB025585EA5B
:103D5000CE710AD05FEA440C18BF24F0004450F141
:103D6000000041F1000120EAD47040F2FE7C62457F
:103D700000D270BDA84214BF4FF080444FF04044C1
:103D8000002E08BF0024BEF1806FA8BFA1F1C04182
:103D9000BDE8704080F282804FF0000001F1C04128
:103DA00001F0004170479EEA0C0F0CEA131518BF92
:103DB00095EA0C0F06D04FF0000081EA030E0EF0DA
:103DC000004170BD00F01CF88900013E00F007B80A
:103DD00000F009B84FEA430C5FEA5C5C08D081EA66
:103DE000030100F05BB84FEA410C5FEA5C5CF6D17E
:103DF0004FF00000014970470000FF070000F87F06
:103E00000EF1020E2EF0030E5EF8046B364205D45E
:103E1000012A43EB030515F5001F12D8012841EBD9
:103E2000010C1CF5001F0CD80ED14FEAD17C15F502
:103E3000001F0CEB4C0C0CF1020C08BF4CEBD37CBC
:103E400004E04FF0080C01E04FEAD37C0CEB4C058A
:103E500026FA05F606F00706B6F1040C06D20EEBBC
:103E6000860CBDE870404CF0010C6047DFE80CF0B8
:103E7000090B02024FF000414FF00000A1F50021B4
:103E800070BD19461046012851EB010418BFD4F546
:103E9000001484BF002001F0004170BD0808A0F5A7
:103EA00000114FEA3101704710B591EA030F48BF86
:103EB00083F000433FF512AE841A71EB030C07D276
:103EC00012198CF0004C43EB0C03001B61EB0C014E
:103ED000DFF8A4E14FEA1154A4EB135C1EEA430F90
:103EE00018BF9EEA445F00F0B08023EA6E0352429E
:103EF00021EA0451C3EB6E0338BF5B1EDCF1200ED8
:103F000025D322FA0CFE10EB0E0043FA0CFE41EB17
:103F10000E01CCF1200E03FA0EFE10EB0E0051F153
:103F20000001CCF1200E29D412FA0EF201EB04515B
:103F3000BDE8104058BF7047401C1CBFB2F1004F95
:103F4000704700280CBF491C20F00100704712EB9D
:103F5000020E43EB030218BF4FF0010E4EEA42027D
:103F6000ACF1200CDCF11E0E54D943FA0CFE10EB20
:103F70000E0051F1FF31CCF11E0ED5D50EF1010E20
:103F800012FA0EFE404141EB010101EB445C5FEA95
:103F90005C5C10D910EBDE7001EB045138BFBEF150
:103FA000004FBDE8104018BF704700280CBF491CE7
:103FB00020F00100704730D24FEAD42C11F50011E7
:103FC00024F400641BD0B1FA81F20B3AA41AA41EA7
:103FD000D2F12003914030FA03F31943904001EBF2
:103FE000CC71002C01EB0451BDE81040A8BF704714
:103FF00001F1C0414FF0000001F000417047B0FAFC
:1040000080F310FA03F100D110BDE41A173C480503
:10401000C90AE4E701EB045110BD491001EB04515A
:10402000BDE810404FEA300002E04FF00001704759
:104030004A0008BF0042F8D0B2F5001F28BF704701
:1040400001F000414FF0000070479EEA445F07D046
:1040500011EA5E0FBDE8104004BF00210020704748
:10406000BDE8104070B5FFF7CBFE00BF40DFF63E65
:1040700083F00041104670470000E0FF41000B0E46
:10408000D3F19E0208D950F400034FEA032323FA28
:1040900002F048BF4042704710B500F08CF800BFF6
:1040A00049922480002070476FF0004282EA20008D
:1040B000704700004FF47F0C1CEAD0121EBF1CEAB0
:1040C000D11392EA0C0F93EA0C0F00F0478090EAAC
:1040D000010F48BF42F480724FF0004C4CEA0020C0
:1040E0004CEA012102EB0302A0FB0113A2F500023E
:1040F000002918BF43F001035B0028BF4FEA3303D8
:1041000042EB22425FEA132C4CEBC2502EBFBCEBB9
:10411000436FB2F57C0F70474FEA036CBCF1004F60
:1041200008BF20F00100B2F57C0F38BF70470BD5F7
:1041300082F0FF0212F5803FC8BF704700F1C04017
:10414000D8BF00F00040704700F5000C5FEA4C0C4F
:1041500048BF7047B0F1C04000F073B890EA010F5B
:104160000CEAD11348BF42F48072624538BF634500
:1041700004D280EA010000F00040704710B500F062
:104180001AF800BF8900013E00F007B800F009B836
:104190005FEA410C5FEA1C6C08D080EA010000F085
:1041A00050B85FEA400C5FEA1C6CF6D14FF000405B
:1041B000A0F5800070470EF1020E2EF0030E5EF89F
:1041C000044B244204D44FEA4102B2F17F4F11D88C
:1041D0004FEA4003B3F17F4F0CD80ED14FEAD07CA9
:1041E000B2F17F4F0CEB4C0C0CF1020C08BF4CEB06
:1041F000D17C04E04FF0080C01E04FEAD17C0CEBDD
:104200004C0324FA03F404F00704B4F1040C06D2BE
:104210000EEB840CBDE810404CF0010C6047DFE869
:104220000CF0070802024FF00040A0F5800010BD1E
:104230000846420018BFD2F1807288BF00F00040EB
:1042400010BDFF2141EAD050C00570470CF00F03AC
:10425000092B08BF082000F059800A2B0BD0082B2F
:1042600018BF704708BF1CF0400F0AD04FF0000085
:104270004FF0000170471CF0400F18BF4FF0004096
:1042800070471CF0100F08D020F0704300F07F4200
:1042900042EAD3014FEA4370704700F0604021F0DA
:1042A0007F4242EA000201F07F4040EA72707047AC
:1042B0004FF0FF0C4CF4E06C1CEA11531CBF9CEA5D
:1042C000030C9445C2BFDA4201EB02517047002B48
:1042D0000DD0BCF1000F0FD0002A01F00041A4BFA7
:1042E00041F0E04141F07F614FF00000704701F084
:1042F00000414FF00000704750EA01334FF09B0C33
:1043000018BF4CF0806C7FF489AC70471CF4801FA0
:1043100011D01CF4E02F03D06FEACC314900704774
:104320004FF04050EFF3008222F0704242EA000268
:1043300082F3008870474FF000007047202C03087C
:10434000000000000000000000000000000000006D
:104350000002000018000000000000000000000043
:10436000010202030405060708090A0B0C0D0E0FD3
:104370001010000000000000000001020304060706
:104380000809000000000102030400000000000012
:104390000000000000000000000000003F4000009E
:1043A000000000000000300040003000400000002D
:1043B00009000BC03D000BC03D00090018C024409F
:1043C0007FE0224031800000180024C01B000D80D7
:1043D0003240018003801C4027401C800740004081
:1043E000100060000000000000000000000000005D
:1043F00000001F80204040200000402020401F80FF
:1044000000000000090006001F80060009000000EF
:10441000040004003F80040004000000001000605D
:10442000000000000000000004000400040004007C
:104430000400000000000040000000000000000038
:10444000002001C006003800400000001F8020400E
:10445000204020401F800000000010403FC000406E
:104460000000000018C021402240244018400000F5
:1044700010802040244024401B80000002000D00DA
:1044800011003FC0014000003C80244024402440F3
:10449000238000001F80244024403440038000001B
:1044A0003000200027C03800200000001B8024407E
:1044B000244024401B8000001C0022C022402240D7
:1044C0001F80000000000000084000000000000005
:1044D0000000000004600000000000000000040074
:1044E0000A0011002080404009000900090009006D
:1044F0000900000000004040208011000A00040074
:104500001800200023402400180000001F802040D5
:10451000274029401F400000004007C039000F001D
:1045200001C0004020403FC0244024401B800000C8
:104530001F802040204020403080000020403FC0AD
:10454000204020401F80000020403FC024402E40DB
:1045500030C0000020403FC024402E00300000004A
:104560000F001080204022403380020020403FC0D6
:10457000040004003FC02040204020403FC02040B5
:10458000204000000060202020203FC020002000AC
:1045900020403FC024400B0030C0204020403FC09E
:1045A00020400040004000C03FC03C0003C03C0031
:1045B0003FC0000020403FC00C4023003FC020000F
:1045C0001F802040204020401F80000020403FC02E
:1045D00024402400180000001F802140214020E0DA
:1045E0001FA0000020403FC02440260019C000400A
:1045F00018C0244024402240318000003000204078
:104600003FC020403000000020003F8000400040BC
:104610003F80200020003E0001C00700380020003D
:10462000380007C03C0007C038000000204039C0F7
:10463000060039C0204000002000384007C0384044
:1046400020000000304021C02640384020C000003B
:10465000000000007FE040204020000000007000CB
:104660000C000380004000000000402040207FE05C
:1046700000000000000020004000200000000000BA
:1046800000100010001000100010001000000000CA
:1046900040000000000000000000028005400540CE
:1046A00003C0004020003FC00440044003800000DD
:1046B0000000038004400440064000000000038026
:1046C000044024403FC000400000038005400540F6
:1046D00003400000000004401FC02440244020008C
:1046E000000002E0055005500650042020403FC065
:1046F0000440040003C000400000044027C0004004
:104700000000000000100010041027E0000000006E
:1047100020403FC00140070004C00440204020402A
:104720003FC000400040000007C0040007C0040074
:1047300003C00000044007C00440040003C0004060
:10474000000003800440044003800000041007F0D0
:104750000450044003800000000003800440045023
:1047600007F00010044007C00240040004000000ED
:10477000000006400540054004C0000000000400A1
:104780001F800440004000000400078000400440F7
:1047900007C000400400070004C0018006000400B8
:1047A000060001C0070001C006000000044006C06A
:1047B000010006C0044000000410071004E001805E
:1047C000060004000000044005C00640044000004C
:1047D0000000000004007BE040200000000000001A
:1047E0000000FFF000000000000040207BE004001B
:1047F0000000000040008000400020002000400039
:1048000000000000000000000000000000000000A8
:104810000000000000001FCC000C000000000000A1
:104820000000080030006000080030006000000058
:10483000022003FC1E20022003FC1E200220000098
:1048400000000E1811043FFF10840C7800000000D7
:104850000F0010840F3800C007781884007800001B
:1048600000780F8410C411240E9800E4008400081E
:104870000800680070000000000000000000000058
:1048800000000000000007E01818200440020000AB
:10489000000040022004181807E00000000000009B
:1048A0000240024001800FF00180024002400000FF
:1048B0000080008000800FF80080008000800000F1
:1048C0000001000D000E00000000000000000000CC
:1048D0000000008000800080008000800080008058
:1048E0000000000C000C00000000000000000000B0
:1048F000000000060018006001800600180020007B
:10490000000007F0080810041004080807F0000071
:104910000000080408041FFC00040004000000005C
:1049200000000E0C10141024104411840E0C000012
:1049300000000C1810041104110412880C700000FF
:10494000000000E00320042408241FFC00240000D1
:1049500000001F98108411041104108810700000CA
:10496000000007F008881104110418880070000086
:1049700000001C00100010FC13001C0010000000C0
:1049800000000E3811441084108411440E380000C9
:1049900000000700088C10441044088807F000004D
:1049A000000000000000030C030C000000000000E9
:1049B00000000000000101060000000000000000EF
:1049C00000000080014002200410080810040000CC
:1049D00002200220022002200220022002200000E9
:1049E00000001004080804100220014000800000AC
:1049F00000000E001200100C106C10800F00000060
:104A000003E00C1813E4142417C4082807D000008E
:104A10000004003C03C41C40074000E4001C0004E8
:104A200010041FFC1104110411040E880070000012
:104A300003E00C1810041004100410081C100000EF
:104A400010041FFC100410041004080807F00000F4
:104A500010041FFC1104110417C4100408180000EE
:104A600010041FFC1104110017C010000800000002
:104A700003E00C181004100410441C7800400000DF
:104A800010041FFC10840080008010841FFC1004A0
:104A90000000100410041FFC1004100400000000AB
:104AA00000030001100110011FFE100010000000A3
:104AB00010041FFC110403801464181C100400006F
:104AC00010041FFC1004000400040004000C00008B
:104AD00010041FFC1F0000FC1F001FFC100400003E
:104AE00010041FFC0C04030000E010181FFC100051
:104AF00007F00808100410041004080807F000006C
:104B000010041FFC10841080108010800F00000023
:104B100007F0081810241024101C080A07F20000DF
:104B200010041FFC1104110011C011300E0C000400
:104B300000000E1C11041084108410441C38000066
:104B40001800100010041FFC1004100018000000D2
:104B500010001FF810040004000410041FF81000D7
:104B600010001E0011E0001C007013801C001000DB
:104B70001FC0103C00E01F0000E0103C1FC0000000
:104B80001004180C163401C001C01634180C10049F
:104B900010001C00130400FC13041C001000000093
:104BA0000804101C1064108413041C041018000066
:104BB0000000000000007FFE4002400240020000B2
:104BC000000030000C0003800060001C00030000A7
:104BD00000004002400240027FFE00000000000092
:104BE00000000000200040004000400020000000C5
:104BF00000010001000100010001000100010001AD
:104C00000000400040002000000000000000000004
:104C100000000098012401440144014400FC000408
:104C200010001FFC008801040104008800700000CF
:104C300000000070008801040104010400880000E5
:104C40000000007000880104010411081FFC00042A
:104C5000000000F8014401440144014400C8000080
:104C60000000010401040FFC1104110411001800DC
:104C7000000000D601290129012901C9010600000F
:104C800010041FFC008401000100010400FC00046A
:104C900000000104190419FC0004000400000000D5
:104CA0000000000300010101190119FE00000000CD
:104CB00010041FFC0024004001B4010C010400009A
:104CC0000000100410041FFC000400040000000099
:104CD000010401FC0104010001FC0104010000FCCD
:104CE000010401FC008401000100010400FC000437
:104CF000000000F8010401040104010400F80000B0
:104D0000010101FF0085010401040088007000001A
:104D100000000070008801040104010501FF00018A
:104D20000104010401FC0084010401000180000071
:104D3000000000CC0124012401240124019800007A
:104D400000000100010007F8010401040000000058
:104D5000010001F8000400040004010801FC000443
:104D6000010001800170000C001001600180010051
:104D700001F0010C003001C00030010C01F0010015
:104D800000000104018C00740170018C010400001A
:104D9000010101810171000E001801600180010014
:104DA00000000184010C013401440184010C000065
:104DB000000000000000000001003EFC4002400234
:104DC0000000000000000000FFFF000000000000E5
:104DD0000000400240023EFC010000000000000014
:104DE00000006000800080004000400020002000A3
:104DF00000000000000000000000000000000000B3
:104E000000000000000000000000000000000000A2
:104E10000000000000000000000000000000000092
:104E20000000000F80380FFE380F803800000000AF
:104E30000000000000000000000000000000010071
:104E4000000600000C0000380000310000060000E1
:104E50000C000038000030000000000000000000DE
:104E600061800067F807F98000618000618000615F
:104E7000800061800067F807F98000618000000011
:104E800000000000000001C0E003E0F0063008046C
:104E900018081FFFFE040E080787F00381E00000DA
:104EA0000000000001F000060C00040408060C706D
:104EB00001F9C0000E00003BE000EC1807080804F0
:104EC0000C180003E00000000001E00007F003F808
:104ED00018041C0804170807E1D003C0E00023B041
:104EE000003C080020080000100000000000000145
:104EF00000003100003200001C0000000000000033
:104F000000000000000000000000000000000000A1
:104F10000000000000000000000000000000000091
:104F20007F0001FFC00780F00C0018100004200073
:104F3000020000000000002000021000040C001815
:104F40000780F001FFC0007F0000000000000000AB
:104F500000000000000000000000000042000066A9
:104F600000006600003C0000180003FFC0001800AD
:104F7000003C0000660000660000420000000000E7
:104F8000080000080000080000080000080001FFF9
:104F9000C000080000080000080000080000080029
:104FA00000000000000100003100003200001C0081
:104FB00000000000000000000000000000000000F1
:104FC00000000000000000000800000800000800C9
:104FD00000080000080000080000080000080000A9
:104FE00008000008000000000000000000000000B1
:104FF0003800003800003800000000000000000009
:1050000000000000000000000000000000000000A0
:10501000000600001C000070000180000E00003837
:105020000000C0000700001C00003000000000006D
:10503000000000007F8001FFE0038070060018047C
:10504000000804000806001803807001FFE0007FDC
:1050500080000000000000000000010008010008BE
:1050600001000803FFF807FFF8000008000008002F
:10507000000800000000000000000001C03802C06D
:1050800058040098040118040218040418061C1897
:1050900003F81801E0F80000000000000000000123
:1050A000C0E003C0F004000804080804080806185B
:1050B0000803F41801E7F00001E000000000000020
:1050C000000000000300000D00001100006100005E
:1050D000810803010807FFF80FFFF800010800012D
:1050E000080000000000000000E007FCD0060808EF
:1050F000061008061008061008061838060FF006F5
:1051000007C0000000000000000000003F8001FF19
:10511000E003843002081804100804100804100882
:10512000071810030FF00007C00000000000000087
:10513000000003C0000700000600000600F8060794
:10514000F806180006E00007000006000000000056
:1051500000000001E1E003F7F00634100418080431
:105160001808040C08040C0806161803F3F001C113
:10517000E000000000000000F80003FC30030638E7
:105180000402080402080402080404100308F001E1
:10519000FFC0007F000000000000000000000000D1
:1051A0000000000000000000703800703800703807
:1051B00000000000000000000000000000000000EF
:1051C000000000000000000000000000301A003065
:1051D0001C000000000000000000000000000000B3
:1051E0000000000000000008000014000022000081
:1051F00041000080800100400200200400100800EF
:105200000800000000000000210000210000210033
:1052100000210000210000210000210000210000E9
:105220002100002100000000000000000000080034
:1052300008040010020020010040008080004100AE
:10524000002200001400000800000000000000031D
:10525000C00004C000040000080038080F38080827
:10526000380810000C300007E00003C00000000008
:10527000000000003F8000FFE0038070020F100676
:10528000708804C088048308047F8802C0900301EA
:105290002000FE400000080000180001F8003E0851
:1052A00001C20007020007E20000FE00001FC80064
:1052B00001F800003800000804000807FFF807FFA5
:1052C000F804080804080804080804080806180870
:1052D00003F41801E7F00001E00000000000000006
:1052E0003F8001FFE0038070020018040008040002
:1052F000080400080400100600200780C000000019
:1053000004000807FFF807FFF80400080400080479
:10531000000804001802001003807001FFE0007F05
:105320008000000004000807FFF807FFF8040808E1
:10533000040808040808040808043E0804000806D5
:10534000001801006000000004000807FFF807FFD4
:10535000F8040808040800040800040800043E00DB
:1053600006000006000001800000000000000000B0
:105370003F8001FFE003807006001804000804026B
:10538000080402080203F00783F000020000020094
:1053900004000807FFF807FFF804080800080000E9
:1053A000080000080000080004080807FFF807FFCD
:1053B000F8040008000000000000040008040008D1
:1053C00004000807FFF807FFF804000804000804B9
:1053D00000080000000000000000000000060000BF
:1053E0000700000104000104000104000307FFFEA0
:1053F00007FFFC040000040000040000040008078C
:10540000FFF807FFF8040C08001800003E0004C76E
:10541000800503C80600F8040038040018000008DE
:1054200004000807FFF807FFF80400080000080060
:105430000008000008000008000008000018000034
:105440006000000004000807FFF807800807FC0060
:10545000007FC00003F80007C0007800078008073D
:10546000FFF807FFF804000804000807FFF807002A
:105470000803C00000E000003800001E0000070024
:105480000001C00400F007FFF80400000000000065
:105490007F8001FFE003807006001804000804000C
:1054A0000806001803003001FFE0007F80000000C4
:1054B00004000807FFF807FFF804040804040004C8
:1054C0000400040400040400060C0003F80001F0CA
:1054D00000000000000000007F8001FFE0038070FA
:1054E0000600880400880400C806003C03003E0152
:1054F000FFE6007F8400000004000807FFF807FFB4
:10550000F8040808040800040C00040F00040BC091
:105510000610F003F03801E0080000080000000168
:10552000E0F803F030063010041808041808040CE2
:1055300008040C080206180207F00781E0000000CA
:1055400001800006000004000004000004000807B9
:10555000FFF807FFF804000804000004000006003C
:105560000001800004000007FFE007FFF0040018BE
:1055700000000800000800000800000800000804FF
:10558000001007FFE004000004000006000007E030
:105590000007FE00041FE00001F80000380001E0F1
:1055A000043E0007C00006000004000004000007DD
:1055B000E00007FFC0041FF80007C007F80007FF5E
:1055C00080043FF80007C004F80007000004000052
:1055D00000000004000806001807C07805F1C800A4
:1055E0003E00001F800463E80780F80600180400EE
:1055F0000800000004000006000007800007E00823
:10560000047C08001FF80007F800180804E00807E9
:105610000000060000040000000000010008060071
:10562000380400F80403E8040F08047C0805F008B7
:1056300007C0080700180400600000000000000018
:1056400000000000000000000000003FFFFE2000FE
:1056500002200002200002200002200002000000C0
:1056600000000000000008000007000000C000006B
:1056700038000006000001C000003000000E0000ED
:1056800001000000000000000000200002200002D5
:105690002000022000022000023FFFFE0000000068
:1056A00000000000000000000000000000000000FA
:1056B0000008000010000030000020000030000052
:1056C00010000008000000000000000000000100C1
:1056D00000010000010000010000010000010000C5
:1056E00001000001000001000001000001000001B4
:1056F000000000000000000000200000200000105A
:105700000000100000000000000000000000000089
:10571000000000000000000000F00019F8001B1855
:10572000002208002608002408002410003FF8008A
:105730001FF800000800001800000004000007FF28
:10574000F80FFFF0001818001008002008002008CB
:10575000003018001FF0000FC00000000000000023
:1057600007C0001FF00018300020080020080020AB
:1057700008003C08001C1000006000000000000051
:105780000000000007C0001FF000381800200800CB
:10579000200800200804101007FFF80FFFF0000099
:1057A000100000000000000000000007C0001FF013
:1057B00000123000221800220800220800320800DF
:1057C0001E10000E2000000000000000200000203D
:1057D0000800200801FFF803FFF80620080420084D
:1057E0000420080720000300000000000000000063
:1057F000000E000E6E001FF30031B10020B100203A
:10580000B1003191001F13002E1E00200E00300049
:1058100000000004000807FFF80FFFF80010080060
:105820002000002000002008003FF8001FF80000C2
:105830000800000000000000000000200800200810
:10584000002008063FF8063FF800000800000800A6
:105850000008000000000000000000000000000040
:1058600003000003002001002001002003063FFE8A
:10587000063FFC00000000000000000000000004E3
:10588000000807FFF80FFFF8000188000300002F51
:10589000C00038F800203800200800000800000090
:1058A00000000000000004000804000804000807CD
:1058B000FFF80FFFF80000080000080000080000D3
:1058C00000000000002008003FF8003FF80010082A
:1058D000002000003FF8003FF80010080020000002
:1058E0003FF8003FF8000008000000002008003FDB
:1058F000F8003FF800100800100000200000200809
:10590000003FF8001FF80000080000000000000041
:1059100007C0000FF00018300030080020080020F9
:1059200008003008001830000FF00007C000000029
:10593000000000002001003FFF003FFF00101100A9
:105940002009002008002008003038001FF0000F58
:10595000C00000000000000007C0001FF000381861
:10596000002008002008002009001011001FFF007F
:105970003FFF000001000000002008002008002078
:1059800008003FF8003FF800080800100800200851
:105990000020000030000030000000000000000087
:1059A0000000000C78001E180033080023080021B6
:1059B000080021880021980030F0003860000000C5
:1059C00000000000200000200000200000FFF00385
:1059D000FFF8002008002008002008000030000028
:1059E00000000000000000002000003FF0007FF8F1
:1059F000000018000008000008002010003FF80018
:105A00007FF00000100000000000000020000030C7
:105A100000003C00003F800023F000007800007090
:105A2000002380003C000030000020000020000027
:105A30003C00003FE00023F80000E0002700003EAB
:105A400000003FE00021F80001E0003E00002000DF
:105A5000000000002008002008003838003E6800E0
:105A600027800003C8002CF80038380020180020D8
:105A700008000000000000002000003003003C018E
:105A8000003F830023EC000070002380003C0000F6
:105A9000200000200000000000000000000000388E
:105AA000080020380020F80023E8002F88003E0876
:105AB00000380800201800007000000000000000FE
:105AC00000000000000000000000000008000014BA
:105AD000001FF7FC3000062000020000000000005C
